:020000040800F2
:100000000006002045010008611B00088F10000851
:100010005D1B00080B0B00088B2A00080000000085
:10002000000000000000000000000000151F000894
:100030000F0B000800000000E91B00083920000831
:100040005F0100085F0100085F0100085F01000810
:100050005F0100085F0100085F0100085F01000800
:100060005F0100085F0100085F0100085F010008F0
:100070005F0100085F0100085F0100085F010008E0
:100080005F0100085F0100085F0100085F010008D0
:100090005F0100085F0100085F0100086B0C0008A9
:1000A0005F010008252100085F0100085F010008CA
:1000B0005F0100085F0100085F0100085F010008A0
:1000C0005F0100085F0100085F0100085F01000890
:1000D0005F010008E52600085F0100086D270008A1
:1000E000310C00085F0100085F0100085F01000893
:1000F000C92200085F0100085F0100085F010008D5
:100100005F0100085F0100085F0100085F0100084F
:100110005F0100085F0100085F0100085F0100083F
:100120005F0100085F0100085F0100085F0100082F
:10013000DFF80CD000F076FC004800475957000863
:10014000000600200648804706480047FEE7FEE715
:10015000FEE7FEE7FEE7FEE7FEE7FEE7FEE7FEE777
:100160003D200008310100082DE9F0410024061B64
:10017000254671F1000605DA01240027D0EB0700BF
:1001800067EB0101161E73F1000605DA0027D2EBBA
:100190000702012567EB030300F046FB86460E4687
:1001A00017469C46AC4204D00025D0EB050E65EB0B
:1001B000010624B10020D2EB000760EB030C70466F
:1001C00031463A466346BDE8F081D2B201E000F81C
:1001D000012B491EFBD270470022F6E710B51346EB
:1001E0000A4604461946FFF7F0FF204610BD30B519
:1001F00004460020034600E05B1C934203D2E05C0F
:10020000CD5C401BF8D030BDF0B480EA0102D40FC1
:100210004200B2EB410F02D20246084611464A00A4
:1002200042D0C30DDDB2C1F3C752AD1A202D35DA6D
:10023000C1F3160141F4000204B15242C5F1200697
:1002400002FA06F12A411044B3EBD05F23D0C4B1C7
:10025000012DA0EBC35009DCF0BC4FF0004202EAD4
:10026000C352DBB200F5000000F039BB400000F1E2
:10027000807000EBC350A0F1807040EAD17049005B
:1002800009E0490841EAC071A0EBC35000F5000045
:10029000400800EBC350F0BC00F018BB61420122E3
:1002A00002EB4101001BF6E7F0BC704781F0004112
:1002B000AAE780F00040A7E780EA010210B502F04B
:1002C0000043400022D04A001FD0010E01EB126112
:1002D000C0F35600C2F3560240F4000042F400029C
:1002E000A0FB022000047F39140400D0401C50EA17
:1002F000124001D44000491EC2B20C0604EBD010DB
:10030000401C4008802A02D003E0002010BD20F0ED
:100310000100002900DA0020184310BD30B480EA43
:10032000010202F0004530F0004221F0004013D0FD
:1003300090B1C30DD40DC2F31601C0F31600E41A38
:1003400041F4000140F400027D34914201D3641C69
:1003500000E04900002C02DA30BC002070474FF466
:1003600000000023914201D3891A034340084FEA59
:100370004101F7D151B1914202D14FF0004105E066
:1003800002D24FF0010101E06FF0010103EBC45014
:10039000284430BC00F09ABA2DE9FE4F804681EA2D
:1003A0000300C00F0C46009021F0004123F00045EF
:1003B000B8EB0200A94105D24046214690461C46B2
:1003C0000B46024623F00040104347D0270DC7F3E9
:1003D0000A00C3F30A510290401A019040286BDAD8
:1003E000C3F3130040F4801B0098924620B1002311
:1003F000D2EB030A63EB0B0B01985946C0F14002A4
:10040000504600F042FA06460D4650465946019ABB
:1004100000F04AFA10EB08006141002487EA11520B
:1004200084EAE7731A4340D0009A62B3019A012A22
:100430004FEA075215DC001B61EB02014FF000424E
:1004400002EA0752CDE90042001C41F58011324614
:100450002B4600F081FA03B0BDE8F08F40462146FC
:10046000F9E7001B61EB0201001C41F58013001845
:100470005B412018A2F5001747EB030140EAD57055
:10048000B6196D4111E06D084FEA360645EAC075B0
:100490004FEA0752001B61EB0201001C41F580117D
:1004A00049084FEA30000019514132462B4603B04B
:1004B000BDE8F04F00F041BA00980122400000234F
:1004C000D0EB020263EBE073009821464FEAE07440
:1004D000B8EB000061EB0401E9E783F000435BE760
:1004E00081F0004158E72DE9FE4F81EA030404F052
:1004F000004421F0004100944FF0000B23F0004332
:1005000050EA01045ED052EA03045BD0C3F30A54FC
:10051000C1F30A552C44A4F2F3340194A0FB025415
:10052000C1F3130141F48011C3F3130343F48013A7
:1005300001FB024400FB034E840A970A44EA8154FB
:1005400047EA8357A4FB076802958D0A05FB0785D8
:100550004FEA932C04FB0C542705029D4FEA0658E2
:1005600047EA1637B5EB08056EEB070C870E920EBF
:1005700047EA811742EA8312A7FB0201B6EB0B019F
:1005800064EB00042B0D43EA0C335E1844EB1C5063
:10059000DA465146E7FB0201C5F313044FEA0B3379
:1005A00043EA14534FEA0432019C43EA0603A4F1E0
:1005B0000C040294009CCDE900B400F0CDF903B026
:1005C000BDE8F08F00200146F9E72DE9F04D81EA02
:1005D000030404F0004B21F0004514464FF0000ADC
:1005E00023F0004150EA050220D054EA01021DD058
:1005F000C5F30A570246C5F31303C1F31300C1F351
:100600000A5640F4801543F48013A7EB0608101B2C
:10061000D64608F2FD3873EB050002D308F1010855
:1006200001E092185B41B8F1000F03DA00200146A7
:10063000BDE8F08D00204FF48011064684460EE0A0
:10064000171B73EB050705D3121B63EB050306436A
:100650004CEA010C49084FEA300092185B4150EA1D
:100660000107EDD152EA030012D082EA040083EAC6
:100670000501084305D0101BAB4106D2012200231F
:1006800006E000224FF0004302E06FF00102531039
:100690001AEB06004CEB085110EB0A0041EB0B0182
:1006A000BDE8F04D00F049B9C10F80EAE0700844A0
:1006B000CA079623002100F012B9962300221146A2
:1006C00000F00DB90EB5C10F80EAE0700844CA070A
:1006D000002140F233438DE80E000A460B4600F03D
:1006E0003BF903B000BD00F0004220F00040C10D16
:1006F000C0F3160040F400007F2901DA00207047A3
:10070000962903DCC1F19601C84001E09639884082
:10071000002AF4D04042704720F00040C10DC0F3E1
:10072000160040F400007F2901DA00207047962966
:1007300003DCC1F19601C840704796398840704784
:1007400000F0004230F000400AD0C10D01F56071A8
:10075000C0F3160042EA0151C20840071143704736
:10076000002001467047000030B5041E71F10004FE
:1007700004DB4FF00044404264EB0101141E73F1AE
:10078000000405DB1C464FF00043524263EB0403B8
:100790008B4208BF824230BD30B5041E71F10004A7
:1007A00004DB4FF00044404264EB0101141E73F17E
:1007B000000405DB1C464FF00043524263EB040388
:1007C000994208BF904230BD01F0004330B421F09F
:1007D000004150EA010206D00A0DA2F56072C1F391
:1007E0001301002A02DC30BC00207047440F44EAA9
:1007F000C104C100E01830BC00EBC25000F066B884
:10080000002801DBC0F10040002901DBC1F10041FB
:1008100081427047002801DBC0F10040002901DB64
:10082000C1F10041884270472DE9F05F0546002084
:1008300092469B4688460646814640241BE0284651
:1008400041464746224600F0FFF853465A46C01A32
:10085000914110D311461846224600F016F82D1A81
:1008600067EB01084F4622460120002100F00DF8F9
:1008700017EB00094E41201EA4F10104DFDC4846BD
:1008800031462A464346BDE8F09F202A04DB203A41
:1008900000FA02F1002070479140C2F1200320FAD3
:1008A00003F3194390407047202A06DBCB17203A08
:1008B00041FA02F043EAE07306E041FA02F3D04065
:1008C000C2F1200291400843194670470029A8BF91
:1008D0007047401C490008BF20F00100704710B469
:1008E000B0FA80FC00FA0CF050EA010404BF10BC1E
:1008F000704749B1CCF1200421FA04F411FA0CF14B
:1009000018BF012121430843A3EB0C01CB1D4FEA83
:1009100000614FEA102042BF002010BC704700EB7E
:10092000C35010440029A4BF10BC7047401C4900AC
:1009300008BF20F0010010BC704710B5141E73F101
:10094000000408DA401C41F1000192185B411A438F
:1009500001D120F0010010BD2DE9F04D92469B46DB
:1009600011B1B1FA81F202E0B0FA80F22032904681
:10097000FFF78BFF04460F4640EA0A0041EA0B01ED
:1009800053465A46084313D0114653EA010019D082
:10099000C8F14002504600F057F805460E46504652
:1009A00059464246FFF771FF084305D0012004E095
:1009B00020463946BDE8F08D0020054346EAE07642
:1009C0002C4337430A986305E40AA0EB0800002291
:1009D000FD0A44EA47540A3002D500200146E9E7FF
:1009E000010510196941DDE9084500196941BDE8B3
:1009F000F04DA2E770B521F0004303430CD0C1F3E2
:100A00000A550024D5EB040564EB0403D617AD1A90
:100A1000B34102DB0020014670BD201841EB0251BA
:100A200070BD0000064C074D06E0E06840F0010391
:100A300094E8070098471034AC42F6D3FFF77CFBEC
:100A4000D0870008F0870008202A04DB203A21FA2A
:100A500002F00021704721FA02F3D040C2F12002D7
:100A600091400843194670472DE9F04D00231A467E
:100A70001B1A8A4103DB00200146BDE8F08DC1F35B
:100A80000A52C1F3130141F480154FF0000BD10756
:100A900002D100186D41521E0027044640F2FF119A
:100AA000384601EB620A3E468046024600204FF47B
:100AB0008011FFF7C9FFC2197141BB1846EB010055
:100AC000B4EB030C75EB000C04D3E41A65EB0005E2
:100AD00017460E46241908F101006D41804634285E
:100AE000E3DDF91946EB0600091BA84103D24FF0DC
:100AF000FF32134601E0002213461BEB070046EBD2
:100B00000A51BDE8F04DFFF718BF00BFFEE7704780
:100B100010B50446042C06D1404A012140F2EE20D3
:100B200004F072FB06E04FF07C52012140F2EE200F
:100B300004F06AFB6FE001214FF4E17004F092FBD6
:100B400037480078F0B9012C06D0022C08D0032CCD
:100B50000AD0042C10D10BE00120324908700CE0BF
:100B600001203049487008E001202E49887004E0D7
:100B700001202C49C87000E000BF00BF2A4806F0E1
:100B80005FFE49E029480078002844D124480078D5
:100B9000F0B9012C06D0022C08D0032C0AD0042C6A
:100BA00010D10BE001201F4908700CE001201D4905
:100BB000487008E001201B49887004E001201949B1
:100BC000C87000E000BF00BF174806F039FE21E002
:100BD000012C06D0022C08D0032C0AD0042C10D1F2
:100BE0000BE000200F4908700CE000200D49487010
:100BF00008E000200B49887004E000200949C87013
:100C000000E000BF00BF4FF07E52012140F22620DD
:100C100004F0FAFA00E08EE700BF10BDCDCCCC3E68
:100C20009100002020000020CDCCCC3D9000002081
:100C300010B54FF4806000F08FF801280BD103232A
:100C4000012211464FF4FA7003F034FE4FF4806035
:100C500000F07CF808E04FF4006000F07DF8012817
:100C600002D1C00200F072F810BD10B54FF48070D0
:100C700000F072F8012803D1000200F067F80FE0DD
:100C80004FF4007000F068F8012809D101221146E4
:100C90004FF4FA7003F0CAFD4FF4007000F056F8FC
:100CA00010BD0EB50121084600F0C0FF0821032049
:100CB00000F0ECF801208DF80A0000208DF8080003
:100CC0000C208DF809004FF48070019001A800F00D
:100CD00057F80921032000F0D9F84FF40070019073
:100CE00001A800F04DF80A21032000F0CFF84FF4DE
:100CF0008060019001A800F043F80B21032000F070
:100D0000C5F84FF40060019001A800F039F81720F1
:100D10008DF8000001208DF8030004208DF80100FB
:100D200001208DF80200684600F01CFF28208DF895
:100D3000000001208DF8030004208DF80100002040
:100D40008DF80200684600F00DFF0EBD01490860F5
:100D50007047000014040140014600200022074BA8
:100D60001B6803EA0102054B14331B680B4013B1E7
:100D70000AB1012000E0002070470000000401409B
:100D8000002123498279002A3AD00A461268036872
:100D90009A430B461A600A1D126803689A430B1D9A
:100DA0001A60027911440A6803681A430A60184AF3
:100DB0000832126803689A43154B08331A601A1DEB
:100DC000126803689A43124B0C331A604279102A56
:100DD0000ED11A1F126803681A430D4B08331A60AC
:100DE0001A1D126803681A43094B0C331A600DE090
:100DF0000749427911440A6803681A430A6005E00A
:100E0000027911440A6803689A430A607047000037
:100E10000004014008B50121602000F007FFFB201D
:100E2000ADF8000048208DF8030003208DF8020083
:100E30006946094800F04AF84FF44050ADF8000008
:100E400048208DF8030003208DF80200694603480E
:100E500000F03CF808BD00000018014000140140FB
:100E600008B50121202000F0E1FEC020ADF800000F
:100E700048208DF8030003208DF8020069460248DF
:100E800000F024F808BD00000014014030B5002235
:100E90008B071C0F0F2303FA04F20B4B8C1053F833
:100EA00024309343084C8D1044F8253023468C1091
:100EB00053F824308C07240F00FA04F42343024C27
:100EC0008D1044F8253030BD080001402DE9F04177
:100ED000024600250026002000230024002791F868
:100EE00003C00CF00F0591F803C00CF0100CBCF11E
:100EF000000F03D091F802C04CEA050591F800C03C
:100F0000BCF1000F31D0146800202BE04FF0010C31
:100F10000CFA00F3B1F800C00CEA03069E4220D19F
:100F200083004FF00F0C0CFA03F7BC4305FA03FCE7
:100F30004CEA040491F803C0BCF1280F06D14FF02D
:100F4000010C0CFA00FCC2F814C00AE091F803C0CE
:100F5000BCF1480F05D14FF0010C0CFA00FCC2F8AF
:100F600010C0401C0828D1D31460B1F800C0BCF1F7
:100F7000FF0F34DD546800202EE000F1080C4FF024
:100F8000010808FA0CF3B1F800C00CEA03069E420F
:100F900021D183004FF00F0C0CFA03F7BC4305FA84
:100FA00003FC4CEA040491F803C0BCF1280F05D1FE
:100FB00000F1080C08FA0CF8C2F8148091F803C08C
:100FC000BCF1480F07D100F1080C4FF0010808FAF6
:100FD0000CF8C2F81080401C0828CED35460BDE83D
:100FE000F0810000F0B50A4600230024002100250E
:100FF00000F00046B6F1004F02D11D4EF16901E04C
:101000001B4E7168C0F3034583B200F44016B6F579
:10101000401F08D121F07061154E766826F0706689
:10102000134F7E6012E000F48016B6F5801F06D1E3
:10103000032606FA05F4A14341F0706106E0460D6F
:10104000360103FA06F6B14341F0706122B1460D54
:10105000360103FA06F6314300F00046B6F1004FC0
:1010600002D1034EF16101E0014E7160F0BD00005C
:10107000000001400246002093680B400BB10120A4
:1010800000E000207047416170470161704700BF78
:10109000FEE7000010B500F053FEFB480079012880
:1010A00078D10821F948FFF7E5FF40B91021F7484A
:1010B000FFF7E0FF18B90020F54908602CE208218D
:1010C000F248FFF7D7FF012809D11021EF48FFF7B9
:1010D000D1FF20B94FF03F40ED4908601CE20821E4
:1010E000EA48FFF7C7FF50B91021E848FFF7C2FFF1
:1010F000012804D14FF07C50E54908600CE2102132
:10110000E248FFF7B7FF40B92021E048FFF7B2FF00
:1011100018B9E048DE490860FEE10421DB48FFF72A
:10112000A9FF48B90821D948FFF7A4FF20B94FF01B
:101130007E50D7490860EFE11021D448FFF79AFFAD
:10114000012808D12021D148FFF794FF18B9D248CF
:10115000CF490860E0E10421CC48FFF78BFF50B98C
:101160000821CA48FFF786FF012804D14FF07F50BD
:10117000C7490860D0E12021C448FFF77BFF50B980
:101180004021C248FFF776FF28B94FF04040C049E0
:101190000860C1E16BE00221BC48FFF76BFF48B972
:1011A0000421BA48FFF766FF20B94FF08040B849E4
:1011B0000860B1E12021B548FFF75CFF012808D1A4
:1011C0004021B248FFF756FF18B9B448B04908604B
:1011D000A2E10221AD48FFF74DFF48B90421AB4819
:1011E000FFF748FF012803D1AD48A949086093E102
:1011F0004021A648FFF73EFF40B98021A348FFF7F2
:1012000039FF18B9A748A249086085E101219F4824
:10121000FFF730FF48B902219C48FFF72BFF20B9A8
:101220009D4840429A49086076E140219748FFF77F
:1012300021FF012808D180219448FFF71BFF18B92E
:1012400099489349086067E101219048FFF712FF30
:1012500048B902218D48FFF70DFF012803D19348BB
:101260008B49086058E100208949086054E18648AC
:101270000079032878D108218448FFF7FBFE40B9A4
:1012800010218248FFF7F6FE18B900208049086057
:1012900042E108217D48FFF7EDFE012809D1102128
:1012A0007A48FFF7E7FE20B94FF03F4078490860E1
:1012B00032E108217548FFF7DDFE50B9102173486F
:1012C000FFF7D8FE012804D14FF07C507049086028
:1012D00022E110216D48FFF7CDFE40B920216B4877
:1012E000FFF7C8FE18B96B486949086014E104218A
:1012F0006648FFF7BFFE48B908216448FFF7BAFE09
:1013000020B94FF07E506249086005E110215F4826
:10131000FFF7B0FE012808D120215C48FFF7AAFEA4
:1013200018B95D485A490860F6E004215748FFF7AC
:10133000A1FE50B908215548FFF79CFE012804D1B1
:101340004FF07F5052490860E6E020214F48FFF7F8
:1013500091FE50B940214D48FFF78CFE28B94FF05F
:1013600040404B490860D7E06BE002214748FFF757
:1013700081FE48B904214548FFF77CFE20B94FF0B3
:10138000804043490860C7E020214048FFF772FED3
:10139000012808D140213D48FFF76CFE18B94148AB
:1013A0003B490860B8E002213848FFF763FE50B9B6
:1013B00004213648FFF75EFE012804D1364840423A
:1013C00033490860A8E040213048FFF753FE40B998
:1013D00080212E48FFF74EFE18B933482C4908608B
:1013E0009AE001212948FFF745FE40B9022127482C
:1013F000FFF740FE18B92D48254908608CE04021D0
:101400002248FFF737FE012808D180211F48FFF747
:1014100031FE18B926481E4908607DE001211B48AD
:10142000FFF728FE48B902211848FFF723FE0128DC
:1014300003D12048164908606EE000201449086076
:101440006AE011480079022866D108210F48FFF7A9
:1014500011FE40B910210D48FFF70CFE18B900200D
:101460000B49086058E008210848FFF703FE0128EF
:1014700022D110210548FFF7FDFDE8B94FF03F40AC
:101480000349086048E00000D00000200018014037
:1014900078000020000080BF0000C0BF000020C016
:1014A00000002040000040C0000060C0000060401C
:1014B000000090C00000904008211948FFF7DAFDB5
:1014C00050B910211648FFF7D5FD012804D14FF07F
:1014D0007C50144908601FE010211148FFF7CAFD35
:1014E00040B920210E48FFF7C5FD18B90E480D4937
:1014F000086011E004210A48FFF7BCFD48B9082143
:101500000748FFF7B7FD20B94FF07E500549086046
:1015100002E00020034908600248006810BD000096
:101520000018014078000020000080BF08B50121AC
:10153000202000F07BFB4FF47060ADF800004820E5
:101540008DF8030069460248FFF7C0FC08BD0000A3
:10155000001401400020044908600449C1F88801D2
:101560000149091F0860704784012142000021429F
:101570000120044908600449C1F888010149091F94
:1015800008607047840121420000214208B5012112
:10159000042000F04BFB0720ADF8000010208DF870
:1015A000030003208DF8020069460848FFF78EFC0F
:1015B00001210648FFF767FD02210448FFF763FD9C
:1015C00004210248FFF75FFD08BD0000000801404C
:1015D000904201DB012300E0002323B1002801DA5F
:1015E000504200E01046914201DB012300E000235D
:1015F00023B1002901DA514200E011467047000092
:1016000008B501210D2000F011FB18208DF8030012
:1016100003208DF80200C020ADF8000069460D4897
:10162000FFF754FCC0210B48FFF72DFD0320ADF858
:10163000000069460848FFF749FC03210648FFF708
:1016400022FD01210548FFF7CDFC01210448FFF7E9
:10165000C9FC08BD00080140000C01400004300036
:101660000002300010B500200E4908600E484068A6
:1016700020F470200C4948600846406840F440302F
:10168000486000200949C1F8B00100F011F80120BC
:101690000449086000F00CF800200449C1F8AC01CE
:1016A00010BD0000AC0122420010014000002242A7
:1016B00010B5022002F070FA10BD000008B501213B
:1016C000102000F0B3FA4FF4C050ADF80000102025
:1016D0008DF8030003208DF8020069460448FFF7E7
:1016E000F5FB4FF4C0510248FFF7CFFC08BD0000E6
:1016F0000010014010B500200E4908600E484068F7
:1017000020F470200C4948600846406840F440309E
:10171000486001200949C1F8B001FFF7C9FF012065
:1017200004490860FFF7C4FF00200449C1F8AC0178
:1017300010BD0000AC012242001001400000224216
:1017400070B5054600241648406820F470201449FE
:1017500048600846406840F400204860002614E0D5
:10176000002010490860FFF7A3FF01200E49C1F8CF
:10177000AC016006040E0B487C38006808B1601CA0
:10178000C4B2FFF795FF701CC6B2082EE8DB15B98E
:10179000FFF7B0FF01E0FFF765FF204670BD0000D6
:1017A00000100140AC0122420000224270B5044604
:1017B0001248406820F4702010494860084640688C
:1017C00040F44030486000200D490860002512E0D8
:1017D000E0090B49091D08606006040E0120094953
:1017E000C1F8AC01FFF764FF002005490860FFF76E
:1017F0005FFF681CC5B2082DEADB70BD0010014018
:10180000AC0122420000224210B50E48406820F48C
:1018100070200C4948600846406840F440304860F9
:101820000120094908600949C1F8AC01FFF740FFF0
:10183000002005490860FFF73BFF00200349C1F87D
:10184000AC0110BD00100140B00122420000224254
:1018500010B50E48406820F470200C4948600846D6
:10186000406840F440304860002009490860094958
:10187000C1F8B001FFF71CFF0120054908600549C8
:10188000C1F8B001FFF714FF10BD000000100140C7
:10189000AC0122420000224210B5002414484068E6
:1018A00020F47020124948600846406840F4002047
:1018B000486001200F490860FFF7FAFE01200E4939
:1018C000C1F8AC01FFF7F4FE07E0601CC4B2FA2CCB
:1018D00003DDFFF7BDFF012010BD0648803800681A
:1018E0000028F2D10349091F086000BFF4E7000097
:1018F00000100140B00122420000224210B5FFF763
:10190000DDFE80216B2000F0D7F8642002F01EF984
:1019100000216B2000F0D0F8032000F08BF80020AD
:1019200000F080F8322000F0AAF80021382000F002
:10193000C3F800216A2000F0BFF80021232000F046
:10194000BBF88021372000F0B7F8752000F013F8BD
:101950000446682C0BD101216B2000F0ADF800216A
:101960006C2000F0A9F8322000F089F801E0012095
:1019700010BD0020FCE770B50446FFF745FFD020FE
:10198000FFF714FFFFF788FF2046FFF70FFFFFF771
:1019900083FFFFF739FFD120FFF708FFFFF77CFF38
:1019A0000020FFF7CDFE0546FFF752FF284670BD29
:1019B0002DE9F04106460F4614461D46FFF724FF69
:1019C000002141EA4601C8B2FFF7F0FEFFF764FFCD
:1019D00020B1FFF73DFF0120BDE8F0813846FFF759
:1019E000E5FEFFF759FFFFF70FFF012101EB46016D
:1019F000C8B2FFF7DBFEFFF74FFF0DE0012C04D16B
:101A00000020FFF79DFE287003E00120FFF798FEFD
:101A10002870601EC4B26D1C002CEFD1FFF718FFB8
:101A20000020D9E710B50446E006010E1C2000F0A6
:101A300043F810BD10B50446E006010E1B2000F06F
:101A40003BF810BD70B504460025BC2C01DB012518
:101A500010E0622C01DB02250CE02A2C01DB0325BF
:101A600008E0142C01DB042504E00A2C01DB052529
:101A700000E0062529461A2000F01EF870BD70B55A
:101A80000446B4F57A7F01DD4FF47A74042C00DA51
:101A900004244FF47A7090FBF4F0401EC5B229463E
:101AA000192000F009F80546264604EBD671C1F36B
:101AB0004F00FFF7C7FF70BD70B505460C46FFF736
:101AC000A3FED020FFF772FEFFF7E6FE18B1FFF786
:101AD000BFFE012070BD2846FFF768FEFFF7DCFE61
:101AE0002046FFF763FEFFF7D7FE18B1FFF7B0FE01
:101AF0000120EFE7FFF7ACFE0020EBE72DE9F04116
:101B000005460E4617469846FFF77EFE002141EA3D
:101B10004501C8B2FFF74AFEFFF7BEFE20B1FFF74E
:101B200097FE0120BDE8F0813046FFF73FFEFFF74A
:101B3000B3FE00240CE018F80400FFF737FEFFF7AF
:101B4000ABFE18B1FFF784FE0120EBE7601CC4B2C6
:101B5000BC42F0DBFFF77CFE0020E3E700BFFEE7BE
:101B60007047000070B5002100230F22C47804B331
:101B7000154C246804F4E064C4F5E064210AC1F162
:101B80000403CA40447804FA03F1847814402143E2
:101B900009010E4C0678A155047804F01F050124B4
:101BA000AC4005786D11AD0005F1E025C5F80041A8
:101BB00009E0047804F01F050124AC40044D0678C8
:101BC000761145F8264070BD0CED00E000E400E021
:101BD00080E100E002490143024A116070470000C1
:101BE0000000FA050CED00E07047000029B1064A3C
:101BF000D2690243044BDA6104E0034AD2698243AA
:101C0000014BDA61704700000010024029B1064A1A
:101C100012690243044B1A6104E0034A12698243C9
:101C2000014B1A61704700000010024029B1064ABA
:101C300092690243044B9A6104E0034A9269824329
:101C4000014B9A61704700000010024029B1064A1A
:101C5000D2680243044BDA6004E0034AD26882434C
:101C6000014BDA60704700000010024030B50021DF
:101C70000022002400232D4D6D6805F00C0121B1D8
:101C8000042905D0082923D105E0294D056022E06B
:101C9000274D05601FE0254D6D6805F47012234D3A
:101CA0006D6805F48034022505EB92421CB9214D84
:101CB000554305600BE01D4D6D6805F400351DB101
:101CC0001C4D5543056002E0194D5543056002E087
:101CD000174D056000BF00BF144D6D6805F0F001A1
:101CE0000909154D6B5C0568DD4045600F4D6D6859
:101CF00005F4E061090A104D6B5C4568DD408560C4
:101D00000A4D6D6805F46051C90A0B4D6B5C45685E
:101D1000DD40C560054D6D6805F44041890B074DF8
:101D20006B5CC568B5FBF3F5056130BD0010024082
:101D300000127A0000093D006200002072000020BD
:101D400010B501213348FFF795F902213148FFF71B
:101D500091F904212F48FFF78DF908212D48FFF74D
:101D600089F910212B48FFF785F920212948FFF731
:101D700081F940212748FFF77DF980212548FFF7A9
:101D800079F94FF480512448FFF774F94FF400516A
:101D90002148FFF76FF900F043F800F073F80421D1
:101DA0001D48FFF767F908211B48FFF763F9012178
:101DB0001948FFF75FF902211748FFF75BF9012186
:101DC0001448FFF757F9044602211248FFF752F969
:101DD000044404210F48FFF74DF9044408210D483D
:101DE000FFF748F9044410210A48FFF743F9044477
:101DF00020210848FFF73EF9044440210548FFF739
:101E000039F9044480210348FFF734F92044034999
:101E1000086010BD0018014000140140800000203F
:101E2000F8B5002500260020009000240AE080215B
:101E30001248FFF71FF90DF80400282001F0ACFE4E
:101E4000601CC4B2032CF2DB00240AE01DF804007D
:101E5000012802D1701CC6B201E0681CC5B2601C2A
:101E6000C4B2032CF2DBB54203DD00200449087044
:101E700002E0012002490870F8BD00000014014092
:101E8000900000207CB500250026002000900190E5
:101E900000240AE040211248FFF7ECF80DF8040096
:101EA000282001F079FE601CC4B2052CF2DB00246E
:101EB0000AE01DF80400012802D1701CC6B201E03E
:101EC000681CC5B2601CC4B2052CF2DBB54203DD50
:101ED00000200449087002E00120024908707CBD1E
:101EE000001401409100002008B501212020FFF7D7
:101EF0009DFE0F20ADF8000048208DF80300032060
:101F00008DF8020069460248FEF7E0FF08BD0000B8
:101F100000140140704710B5FEF7A2FFFFF7E4FF81
:101F2000FEF778FF10BD10B500F002F810BD0000FC
:101F30000CB50020019000903348006840F48030D8
:101F40003149086000BF3048006800F4003000905C
:101F50000198401C0190009818B90198B0F5A06F45
:101F6000F1D12948006800F4003010B10120009040
:101F700001E0002000900098012843D12348006828
:101F800040F01000214908600846006820F0030076
:101F900008600846006840F0020008601A4840687F
:101FA000194948600846406848600846406840F45F
:101FB000806048600846406820F47C10486008460D
:101FC000406840F4E81048600846006840F08070BF
:101FD000086000BF0C48006800F000700028F9D0CD
:101FE0000948406820F003000749486008464068F7
:101FF00040F00200486000BF0348406800F00C0059
:102000000828F9D10CBD0000001002400020024059
:10201000042808D14FF0E021096941F004014FF094
:10202000E022116107E04FF0E021096921F004018D
:102030004FF0E022116170477047000010B513485F
:10204000006840F0010011490860084640681049E6
:1020500008400E494860084600680E4908400B4990
:1020600008600846006820F4802008600846406840
:1020700020F4FE0048604FF41F008860FFF753FF14
:102080004FF000600449086010BD000000100240DD
:102090000000FFF8FFFFF6FE08ED00E07FB5054603
:1020A0000C460121C802FFF7C1FDADF80850ADF89C
:1020B00004400020ADF80A00ADF8060001A90D4863
:1020C00000F0BEFA012211460A4800F053F9192027
:1020D0008DF8000001208DF803008DF801008DF8C7
:1020E00002006846FFF73EFD0121024800F02DF98D
:1020F0007FBD0000002C0140002002498860024999
:1021000008607047D000002004000020012003492F
:10211000886000200249086070470000D00000205D
:10212000040000202DE9F04101211B4800F019F9BD
:1021300001282BD11948806828B900201849086067
:102140001849086022E01548806801281ED14FF028
:102150007E5113480068FEF757F81149086012498C
:102160000F480068FEF74CFB10D10E480068FEF7E0
:10217000E7FA06460D4A0E4BFEF70EF90446FEF747
:1021800023FB084908600020054908600121024836
:1021900000F0D8F8BDE8F081002C0140D00000200C
:1021A0000000002004000020000020417B14AE4706
:1021B000E17A843F30B587B005460C460121022004
:1021C000FFF714FDADF81450ADF810400020ADF845
:1021D0001600ADF8120004A91A4800F031FA602088
:1021E000ADF800000120ADF802000020ADF80800B5
:1021F0006946144800F0C8F86946124800F01AF918
:102200006946104800F076F969460E4800F0CCF9AE
:1022100008210C4800F004F908210A4800F05CF994
:102220000821084800F0B6F90821064800F0FAF93C
:102230000121044800F07AF80121024800F085F8F5
:1022400007B030BD000400407FB505460C460121B3
:102250004803FFF7EBFCADF80850ADF80440002050
:10226000ADF80A00ADF8060001A90E4800F0E8F943
:10227000012211460B4800F07DF82C208DF800005B
:1022800001208DF8030002208DF8010000208DF858
:1022900002006846FFF766FC0121024800F055F88D
:1022A0007FBD00000034014000200249C86002499F
:1022B00008607047D000002008000020012001497C
:1022C000C8607047D00000202DE9F041012112487C
:1022D00000F047F8012818D11048C06818B900204C
:1022E0000F49086011E00D48C06801280DD10C4865
:1022F0000068FEF725FA06460A4A0B4BFEF74CF833
:102300000446FEF761FA064908600121024800F020
:1023100019F8BDE8F081000000340140D000002031
:10232000080000209A9999999999A93F21B10288AA
:1023300042F08002028004E002884FF67F731A4068
:1023400002807047CA430282704721B1028842F07E
:102350000102028004E002884FF6FE731A400280F8
:10236000704702460020138A0B400BB1012000E0A9
:10237000002070471AB183890B43838102E083896F
:102380008B4383817047000070B500240022002336
:10239000058C4FF6FE7635400584028C8388048BCD
:1023A0004FF68F752C40B51E2C400D882C43751EA2
:1023B0002A400D892A434D882A43144DA8420BD048
:1023C000134DA84208D0134DA84205D0124DA84283
:1023D00002D0124DA84213D14FF6F7752A404D890D
:1023E0002A434FF6FB752A408D882A434FF6FF6536
:1023F0002B404FF6FF552B408D892B43CD892B4326
:1024000083800483CD888586028470BD002C0140C2
:1024100000340140004001400044014000480140B8
:102420000A460021018B4FF6F773194011430183CF
:102430007047000070B5002400220023058C4FF681
:10244000EF7635400584028C8388048B48F6FF754F
:102450002C404FF6FF452C400D884FF6FF7606EADC
:1024600005252C434FF6DF752A400D8906EA051530
:102470002A434D8806EA05152A43154DA84202D085
:10248000144DA8421DD14FF67F752A404D894FF655
:10249000FF7606EA05152A434FF6BF752A408D8858
:1024A00006EA05152A434FF6FF352B404FF2FF751C
:1024B0002B408D8906EA85052B43CD8906EA8505E3
:1024C0002B4383800483CD880587028470BD000080
:1024D000002C0140003401400A460021018B4FF2DC
:1024E000FF7319404FF6FF7303EA02231943018378
:1024F0007047000070B5002400220023058C4FF6C1
:10250000FF6635400584028C8388848B4FF68F7577
:102510002C404FF6FC752C400D882C434FF6FF5590
:102520002A400D894FF6FF7606EA05252A434D8895
:1025300006EA05252A43154DA84202D0144DA842AB
:102540001DD14FF2FF752A404D894FF6FF7606EAFE
:1025500005252A434FF6FF352A408D8806EA0525D2
:102560002A434EF6FF752B404DF6FF752B408D89A3
:1025700006EA05152B43CD8906EA05152B43838012
:102580008483CD888587028470BD0000002C0140C3
:10259000003401400A460021818B4FF6F773194041
:1025A000114381837047000070B50022002300248E
:1025B000058C4EF6FF7635400584038C8488828B2B
:1025C00048F6FF752A404FF6FF452A400D884FF622
:1025D000FF7606EA05252A434DF6FF752B400D8947
:1025E00006EA05352B434D8806EA05352B430B4D8E
:1025F000A84202D00A4DA84208D14BF6FF752C40E4
:102600008D894FF6FF7606EA85152C4384808283F8
:10261000CD88A0F84050038470BD0000002C01401C
:10262000003401400A460021818B4FF2FF731940AC
:102630004FF6FF7303EA02231943818370470000BA
:10264000002202881D4B98420ED01D4B98420BD0A1
:10265000B0F1804F08D01B4B984205D01A4B9842DE
:1026600002D01A4B984204D14FF68F731A404B8810
:102670001A43174B984207D0164B984204D04FF696
:10268000FF431A40CB881A4302808B8883850B88CE
:1026900003850A4B98420BD0094B984208D00E4B49
:1026A000984205D00D4B984202D00D4B984201D173
:1026B0000B7A03860123838270470000002C0140BF
:1026C000003401400004004000080040000C0040BD
:1026D0000010004000140040004001400044014050
:1026E0000048014010B540F225511D4800F00CF99A
:1026F00010B31B4800F0C4F9C4B21A48008800F4B3
:102700000040C8B91748008800F4804060B10A2C26
:1027100003D000201349088020E01248008840F4CC
:1027200000401049088019E00D2C06D10D480088A2
:1027300040F480400B49088010E00A480088C0F34C
:102740000D0009490C5407480088401C05490880C1
:1027500008460088C72801DD0020088010BD000061
:102760000038014060000020E400002010B540F275
:102770002551044800F0C8F818B12021014800F0A4
:102780005FF810BD0048004010B586B00446012136
:102790001120FFF74BFA01218804FFF727FA0121E6
:1027A0002448FEF71FFC244800F060F818208DF83C
:1027B00017004FF48060ADF8140003208DF8160068
:1027C00005A91E48FEF782FB04208DF81700400281
:1027D000ADF8140005A91948FEF778FB0194002014
:1027E000ADF810000C20ADF80E000020ADF80C0084
:1027F000ADF80A00ADF8080001A90F4800F0D4F8C0
:1028000001210D4800F025F8012240F225510A4827
:1028100000F0A4F827208DF8000001208DF80300B7
:102820008DF8010002208DF802006846FFF79AF942
:1028300006B010BD10001400004800400010014018
:1028400001F40072B2F5007F00D100BFCA430280DC
:10285000704721B1828942F40052828104E082896A
:102860004DF6FF731A4082817047000010B5044690
:102870002048844209D101218803FFF7E7F90021AC
:102880004FF48040FFF7E2F932E01B48844209D15F
:1028900001214804FFF7BAF900214FF40030FFF797
:1028A000B5F925E01548844209D101218804FFF7D4
:1028B000ADF900214FF48020FFF7A8F918E0104887
:1028C000844209D10121C804FFF7A0F900214FF487
:1028D0000020FFF79BF90BE00A48844208D1012150
:1028E0000805FFF793F900214FF48010FFF78EF9E8
:1028F00010BD000000380140004400400048004086
:10290000004C00400050004070B5024600240023F7
:102910000025002040F66A16B14200D100BFC1F385
:10292000421501F01F03012606FA03F3012D02D11F
:102930009689334006E0022D02D1168A334001E029
:10294000968A33400C12012606FA04F416883440A5
:1029500013B10CB1012000E0002070BDF0B50346BA
:10296000002400260025002040F66A17B94200D155
:1029700000BF1846C1F3421401F01F06012707FAF1
:1029800006F5012C01D10C3004E0022C01D11030ED
:1029900000E014301AB107682F43076002E00768AF
:1029A000AF430760F0BD00002DE9F04786B0054653
:1029B0000E460024A24600BFA1460027B08900B100
:1029C00000BF2F462C8A4CF6FF700440F088044369
:1029D0002C82AC894EF6F3100440B088318908434C
:1029E000718908430443AC81AC8A4FF6FF40044030
:1029F000B0890443AC8201A8FFF738F91F48874229
:102A000002D1DDF810A001E0DDF80CA0A88900F4E7
:102A1000004040B10AEBCA0000EB0A1031684900DF
:102A2000B0FBF1F807E00AEBCA0000EB0A103168CE
:102A30008900B0FBF1F86420B8FBF0F00401200934
:102A4000642101FB1089A88900F4004040B13220C4
:102A500000EBC900B0FBF1F000F00700044308E010
:102A6000322000EB09106421B0FBF1F000F00F0000
:102A700004432C8106B0BDE8F08700000038014017
:102A800001468888C0F30800704700BFFEE70000D9
:102A90000FB4054B10B503A9044A029800F09AF848
:102AA00010BC5DF814FB00008D4A00085C0000209B
:102AB000490050EAC12018BF04204A0D18BF40F059
:102AC000010040F2FF72B2EB515F08BF40F002001C
:102AD000012808BF052070472DE9F0414F1E00EB8B
:102AE000C7010446D1E9000115461E4637F006022B
:102AF0000DD02A463346FDF7F6FC7F1E04EBC703D4
:102B0000D3E90023FDF748FC37F00602F1D1022F8C
:102B100025D0042F13D0062F18BFBDE8F0812A4618
:102B20003346FDF7E0FCD4E90A23FDF735FC2A46DD
:102B30003346FDF7D8FCD4E90823FDF72DFC2A46DF
:102B40003346FDF7D0FCD4E90623FDF725FC2A46E1
:102B50003346FDF7C8FCD4E90423FDF71DFC2A46E3
:102B60003346FDF7C0FCD4E90223FDF715FC2A46E5
:102B70003346FDF7B8FCD4E90023BDE8F041FDF78A
:102B80000BBC0122FDF736BFFDF706BC0022134641
:102B900010461146FDF719BD024A00201107FDF746
:102BA00029BF000001FDFFFF02E008C8121F08C195
:102BB000002AFAD170477047002001E001C1121FBE
:102BC000002AFBD1704700000149086070470000EF
:102BD000CC0000202DE9FF4F8DB00F4605460026A2
:102BE00006E025280BD0DDE90F1290476D1C761CFE
:102BF00028780028F5D111B03046BDE8F08F0024C8
:102C0000A246A1460122EC4900E0044315F8013F29
:102C1000203B02FA03F00842F7D128782A2810D086
:102C20006FF02F022878A0F13001092914D80AEB9F
:102C30008A0102EB410144F0020400EB010A6D1C21
:102C4000F0E701CF5FEA000A03D544F40054CAF16B
:102C5000000A44F002046D1C28782E2817D115F8BC
:102C6000010F44F004042A280ED06FF02F022878B8
:102C7000A0F1300109290AD809EB890102EB4101D1
:102C800000EB01096D1CF2E757F8049B6D1C2878D6
:102C90006C280FD006DC4C2817D068280DD06A2885
:102CA00014D104E0742810D07A280FD10DE044F438
:102CB00000140AE044F4801401E044F440146978FC
:102CC000814202D104F580146D1C6D1C2A786E2A95
:102CD0001FD00CDC632A31D004DC002A8BD0582AA8
:102CE00011D1A3E0642A68D0692A0CD165E0732A67
:102CF0002ED004DC6F2A73D0702A04D19BE0752A91
:102D00006FD0782A6ED01046DDE90F129047761CFE
:102D100050E1C4F30250022806D0032809D0042849
:102D200001CF09D0066045E101CFF117C0E900618C
:102D300040E101CF06803DE106703BE117F8040B4E
:102D40008DF8000000208DF80100EB46012003E023
:102D500057F804BB4FF0FF3061074FF0000102D479
:102D60000DE008F10101884649450FDA8045F8DB9E
:102D70001BF808100029F4D108E008F10101884689
:102D80008142FADB1BF808100029F6D1DDE90F2398
:102D9000AAEB08008146214600F036F9304400EBEA
:102DA000080604E0DDE90F121BF8010B9047B8F1AB
:102DB0000108F7D221464846F7E00A21C4F302533E
:102DC0004FF0000B0891022B04D001CFC117032B49
:102DD00009D00AE0FF1D27F00707F7E8020108E025
:102DE00032E01FE020E000B2C117042B01D140B255
:102DF000C117031E71F1000307DA4FF0000CD0EB8E
:102E00000C006CEB01012D2302E0230504D52B23DC
:102E10008DF82430012303E0E30701D02023F7E7F6
:102E2000984658E00A2110E010210EE010204FF0E3
:102E3000000B08900CE010214FF0000B44F004044C
:102E40004FF00809089103E008214FF0000B0891AA
:102E5000C4F30253022B04D001CF0021032B06D070
:102E600006E0FF1D27F00707F7E8020103E080B244
:102E7000042B00D1C0B24FF0000823072BD5702AD5
:102E800007D0DDF820C08CF0100C5CEA0B0C05D0EC
:102E90000EE040238DF82430012308E050EA0103BE
:102EA00006D030238DF824308DF825200223984653
:102EB000DDF820C08CF0080C5CEA0B0C0BD150EA5A
:102EC000010301D1630706D530238DF824304FF07C
:102ED0000108A9F10109582A04D038A20B9208AAC6
:102EE0000A920BE03AA2F9E75B46089AFDF79CFCD0
:102EF0000B9B9B5C0A9A521E0A92137050EA0102C5
:102F0000F2D10A98ADEB000000F1200B600702D56A
:102F100024F4803401E04FF00109D94502DDA9EB2A
:102F20000B0000E0002000EB0B0141440890AAEBED
:102F3000010AE00306D4DDE90F232146504600F0E4
:102F400063F806444FF0000908E009A911F80900E8
:102F5000DDE90F12904709F10109761CC145F4DB48
:102F6000E0030CD5DDE90F232146504600F04CF874
:102F7000064404E0DDE90F1230209047761C0899E2
:102F8000481E08900029F5DC08E00A980A990078A4
:102F9000491C0A91DDE90F129047761CBBF1000134
:102FA000ABF1010BF1DC21465046DDE90F2300F0C7
:102FB00019F806446D1C1BE6092801003031323334
:102FC0003435363738396162636465660000000065
:102FD000303132333435363738394142434445464F
:102FE000000000002DE9F041044600251E4617466A
:102FF000880404D405E039462020B0476D1C641EC7
:10300000F9D52846BDE8F0812DE9F04104460025B8
:103010001E469046C80301D5302700E020278804CB
:1030200004D505E041463846B0476D1C641EF9D50D
:103030002846BDE8F08100002DE9FE4F06460F4608
:103040000025684601F030FD002442E056F82400D7
:1030500057F82410A0EB010ABAF1000F01DB51462A
:1030600001E0CAF100010846FDF71EFB83464FF060
:103070008F41FDF753F980465DF824000021FDF7EC
:10308000BFFB16D05DF824104046FDF747F9824695
:103090004FF07E51FDF70AF9814629F0004A0F48AA
:1030A000416A5046FDF7B6FB12D20120A04005430D
:1030B0000EE00A48C1694046FDF7A2FB05D3074868
:1030C000016A4046FDF7A6FB02D20120A04005435D
:1030D000641C032CBADB2846BDE8FE8F6C7A00081E
:1030E0002DE9F04D8D4F21F0004A86B005460C4683
:1030F000BA452ADBAAEB070028430AD08848824554
:1031000001DC1AD1CDB106B02846BDE8F04DFFF77D
:1031100038BD844A844B2846FDF7E5F907460E463C
:10312000824A834B28462146FDF7DDF906B03A4630
:103130003346BDE8F04DFDF72FB90120FFF744FD00
:1031400006B0BDE8F04DFFF721BD7A48824542DA6E
:10315000BAF1795F0BDA2846FFF7AAFC042808BF0A
:10316000FFF71AFD284606B02146BDE8F08D2A4635
:103170000B461046FDF7B7F9834602466E480E46E9
:103180000B4606217844FFF7A7FC5A463346FDF765
:10319000AAF9804669488A465A463346042178444B
:1031A000FFF79AFC5A463346FDF79DF900223B464D
:1031B000FDF7F2F802460B4640465146FDF705FA88
:1031C0002A462346FDF78FF906B02A462346BDE876
:1031D000F04DFDF7E1B8284624F0004100223D46BD
:1031E0003B46FDF77DF94FF0FF32FDF703FC064645
:1031F000024653480F460B4606217844FFF76CFC05
:1032000032463B46FDF76FF9CDE900014D483246A5
:103210003B4604217844FFF75FFC32463B46FDF70E
:1032200062F900222B46FDF7B7F88346029130463B
:10323000394604F0DFFA804643480D46504517DC16
:10324000DDE900015A46029BFDF7BFF942462B46D5
:10325000FDF749F942462B46FDF79EF80122FDF79E
:10326000C9FB304A304BFDF738F9304A304B4CE05F
:103270004FF0000A52460B464046FDF78DF8CDE967
:10328000031052462B4610461946FDF72CF93246DC
:103290003B46FDF725F9DDE90332FDF796F90646D1
:1032A0000F46DDE900015A46029BFDF78EF9834681
:1032B0000091012230463946FDF79CFB194A1A4B12
:1032C000FDF70EF906460F46012240462946FDF756
:1032D00091FB5A46009BFDF706F932463B46FDF747
:1032E000FCF806460F46012250462946FDF782FBB0
:1032F0000E4DDFF858802A464346FDF7F1F8324676
:103300003B46FDF7EDF82A464346FDF7E9F8002C69
:10331000D8BF81F0004106B0BDE8F08D0000F03F5D
:103320000000F07F075C143326A6913C182D44540E
:10333000FB21F93F0000E03F085500001E5500004A
:1033400092540000A85400003333EF3FFB21E93FC3
:103350002DE9F84F04460D4621F0004000917349D5
:10336000814211DC7249884201DC06D12CB1204631
:103370002946BDE8F84FFFF704BC6E48002DCCBFCE
:103380006D496E49BDE8F88F6D49814211DD6D4987
:103390008142D8BF4FF0FF366DDD20462946FFF74A
:1033A00087FB042808BFFFF7F7FB20462946BDE846
:1033B000F88F6549654F25F00045814233DD64494A
:1033C000814219DD002632464FF0804320462946CF
:1033D000FCF7E2FF80468A46012220462946FDF797
:1033E00009FB00223B46FDF778F842465346FDF7BD
:1033F000ECF804460D463EE001260022BA463B4664
:1034000020462946FCF7C8FF80460F460022534657
:1034100020462946FDF761F842463B46FDF7D5F8C0
:1034200004460D4627E04B4981421BDDDFF828A109
:1034300002260022534620462946FDF754F8002272
:103440003B46FCF7A9FF80460F4600225346204624
:103450002946FDF742F842463B46FDF7B6F80446DA
:103460000D4608E0032622462B4600203B49FDF787
:10347000ACF804460D4622462B4610461946FDF789
:1034800032F88B46824602460B46FDF72CF807467B
:103490000246334888460B4606217844FFF71CFB5A
:1034A00052465B46FDF71FF882462E488B463A4649
:1034B000434605217844FFF70FFB3A464346FDF7A4
:1034C00012F802460B46002E504659460CDAFCF71D
:1034D00063FF22462B46FDF706F801B022462B4635
:1034E000BDE8F04FFCF7FCBFFCF756FF22462B4629
:1034F000FCF7F9FF1C4A7A4402EBC603D3E9002328
:10350000FCF7EBFF22462B46FCF7E7FF174A7A440D
:1035100002EBC603D3E90023FCF7E2FF009A002A7E
:10352000B8BF81F00041BDE8F88F000000001044F2
:103530000000F07F182D4454FB21F93FFB21F9BF17
:103540000000DC3F0000203E0000F33F0000F03FA1
:103550000000E63F008003400000F83F0000F0BF9D
:10356000AA5200006852000006520000CE5100002E
:103570002DE9F04D9446CCF1000423F000464CEACE
:103580000404524F46EAD4749A46884621F0004219
:10359000BC4206D8454240EA050442EAD474BC4223
:1035A00004D9BDE8F04D6246FFF7EEBAAAF14055E6
:1035B000A5F17F6555EA0C040BD0022404EAAA7435
:1035C000434DDFF810E144EAD87452EA000B04D00E
:1035D0000CE0BDE8F04DFFF7BBBE002C14BF012C82
:1035E000BDE8F08D022C30D0032C32D056EA0C0B03
:1035F0000AD0BE4220D1BA4209D126F0804622F03C
:1036000080423346114617E000291ADB25E0DFF837
:10361000C8B0FB44002C04BFDBE90001BDE8F08D1D
:10362000012C02BFDBE9000181F00041BDE8F08D13
:10363000022C0AD0032C0CD0BA4212D1B8F1000FE0
:103640000BDA23482549BDE8F08D28462449BDE81A
:10365000F08D28467146BDE8F08D1D482149BDE832
:10366000F08D921B12153C2AC4BF19481D490EDC6F
:10367000BAF1000FBEBF12F13C0F0020014606DB7D
:103680006246FCF7A2FF21F00041FFF761FE002C2B
:1036900008BFBDE8F08D012C04BF81F00041BDE8FA
:1036A000F08D114A114B022C07D0FCF716FF2A4669
:1036B000BDE8F04D0A4BFCF710BFFCF70EFF2A46A1
:1036C000BDE8F04D064BFCF70BBF00000000F07F9B
:1036D000182D4454FB2109C062510000FB21F9BFA1
:1036E000FB210940FB21F93F075C143326A6A13CCE
:1036F00010B509E001214FF42F7001F0B3FD1D4812
:103700000068082800D100E0F4E700BFFEF7FEFCE7
:103710000EE0042140F2262001F058FC4FF07E51CB
:1037200015480068FDF776F802D2FEF7E5FC00E0E8
:10373000EFE700BF114804F083F8114A4FF4C87155
:10374000484201F053FE0BE0FEF7FAFA4FF4FA712B
:10375000084602F07DF807480068082800DA00E013
:10376000F2E700BF074A01214FF4FA7001F04CFD67
:1037700010BD00008000002004000020CDCCCC3D16
:103780003333B33ECDCCCC3E70B509E001214FF4CC
:103790002F7001F067FD21480068082800D100E083
:1037A000F4E700BFFEF7B2FC19E0FEF7C9FA4FF4E8
:1037B000E171084602F04CF808211948FDF75AFC5F
:1037C00068B918480068FCF7BBFF04460022164B96
:1037D000FCF7E2FF03D2154804F032F800E0E4E71A
:1037E00000BF134A4FF4C871484201F0FFFD0BE0DF
:1037F000FEF7A6FA40F22621084602F029F807480B
:103800000068082800DA00E0F2E700BF094A012159
:103810004FF4FA7001F0F8FC70BD00008000002049
:1038200000140140040000200000E03FCDCCCC3D5E
:103830008FC2F53DCDCCCC3E70B509E001214FF4EF
:103840002F7001F00FFD23480068082800D100E028
:10385000F4E700BFFEF75AFC00201F4908602FE084
:103860001D480068FCF76CFF04461C4A1C4BFCF723
:103870007BFF05D2042140F2262001F0A7FB0EE0D9
:1038800015480068FCF75CFF0446144A144BFCF72B
:1038900083FF04D840F22621084601F0D9FF0D48E5
:1038A000006808280CDA0C480068FCF749FF044659
:1038B00000220C4BFCF770FF02D2FEF71DFC00E06B
:1038C000CEE700BF084A01214FF4FA7001F09CFCDA
:1038D00070BD00008000002004000020CDCCCCCCC6
:1038E000CCCCF43F0000F83FCDCCCC3E10B501204D
:1038F0000C490860322000F029F900200A49C1F87B
:103900008401322000F022F90120064908603220AB
:1039100000F01CF900200449C1F88401322000F0B5
:1039200015F910BD840121420000214270B508E064
:1039300001214FF4167001F095FC1A48007800B987
:1039400000E0F5E700BFFEF7AFFCFEF7DFFB26E087
:1039500001214FF4E17001F085FC13480068FCF789
:10396000EFFE04464FF06632104BFCF715FF01D214
:10397000FEF7A4FC0B48007810B900200C49086041
:103980000B480068FCF7DCFE04460A4A0A4BFCF7C9
:1039900003FF04D8FEF788FCFEF7AEFB00E0D7E794
:1039A00000BF70BD90000020040000206666F63F56
:1039B000080000209A9999999999C93F70B508E033
:1039C00001214FF4167001F04DFC2048007800B939
:1039D00000E0F5E700BFFEF767FCFEF797FB31E07C
:1039E00001214FF4E17001F03DFC19480068FCF73B
:1039F000A7FE04464FF06632164BFCF7CDFE01D20F
:103A0000FEF75CFC1148007810B9002012490860EC
:103A100011480068FCF794FE0446104A104BFCF76E
:103A2000BBFE0AD90A480068FCF78AFE04464FF03C
:103A300066320C4BFCF7B0FE04D2FEF735FCFEF705
:103A40005BFB00E0CCE700BF70BD000090000020F1
:103A5000040000206666F63F080000209A999999B4
:103A60009999D93F6666FE3F10B5034A4FF4167127
:103A7000084601F0BBFC10BDCDCCCC3D10B5034ACF
:103A80004FF4FA71084601F0B1FC10BDCDCC4C3EAC
:103A900010B5034A4FF4FA71084601F0A7FC10BDB7
:103AA000B81E053E2DE9F0410446E07800F0C0065E
:103AB000E07800F03F05607800F0010098B1EF1069
:103AC0002846E91705EB5171C910A5EBC101491C46
:103AD00001F0FF080B48006820B10A48414602681F
:103AE0003846904700BF607800F0080030B10548C4
:103AF000406818B1B011034A516888470020BDE8FA
:103B0000F0810000EC01002010B56FF00400FEF71A
:103B10007FFA0A4800680A49B0FBF1F009490870C9
:103B20000846007800EB4001C1EBC0104FF6FF7172
:103B300001EAC0000449088010BD000044000020D4
:103B400000127A00580000205A0000200146114A55
:103B500012884A434FF0E0235A6100229A611A46C4
:103B6000126942F001021A6100BF4FF0E0221069B1
:103B700000F001021AB100F48032002AF5D04FF0B3
:103B8000E022126922F001024FF0E0231A610022C4
:103B90009A6170475A0000200146114A12784A4340
:103BA0004FF0E0235A6100229A611A46126942F0EE
:103BB00001021A6100BF4FF0E022106900F001021B
:103BC0001AB100F48032002AF5D04FF0E0221269D9
:103BD00022F001024FF0E0231A6100229A6170473F
:103BE0005800002038B5044664B120208DF800004C
:103BF00028208DF8010030208DF8020038208DF843
:103C0000030004E0A32204216846FCF7DEFA6A46BA
:103C1000042140F69E2003F053F802F03DFC38BD2D
:103C20003EB5044602208DF80000CA208DF8010040
:103C3000E3208DF8020009208DF803006A46042174
:103C4000682003F03DF8A3208DF8000004F0400048
:103C500048B1C0208DF80100C8208DF80200C220B4
:103C60008DF8030006E0A3208DF801008DF8020016
:103C70008DF8030004F4C07048B1C4208DF804002E
:103C8000CC208DF80500C6208DF8060006E0A320A4
:103C90008DF804008DF805008DF80600A3208DF83E
:103CA00007008DF808008DF809006A460A2140F6E1
:103CB000A72003F005F804F0030018B120208DF8C8
:103CC000000002E0D8208DF800006A46012140F68D
:103CD000B62002F0F5FF04F0200018B1012000F03A
:103CE000ADF802E0002000F0A9F804F4C07008B3B9
:103CF00004F4807060B1B2208DF800008B208DF844
:103D00000100B6208DF802009B208DF803000BE027
:103D1000B0208DF8000080208DF80100B4208DF8CF
:103D2000020090208DF803006A46042140F6A2208C
:103D300002F0C6FF04F0010020B3F8208DF8000067
:103D40006A4601214FF40B6002F0BAFFFA21072006
:103D500000F02CFC072000F0F3FB012000F013FC26
:103D6000642000F0F3FC4FF4FA7000F002FDC8216B
:103D7000304800F0A3FB282000F0BCFB0A2000F034
:103D8000CCFB08E0D8208DF800006A4601214FF4F2
:103D90000B6002F095FF04F0020018B1D9208DF8F5
:103DA000000002E0D8208DF800006A46012140F2B0
:103DB0003D7002F085FF04F0040018B1012000F00E
:103DC00069F802E0002000F065F804F0100018B176
:103DD0000120FFF707FF02E00020FFF703FF44F098
:103DE00008001549488102F057FB002012498873EA
:103DF00004F0400018B10846807B801D887304F4ED
:103E0000C07020B10C48807B801D0B49887304F082
:103E1000140020B10848807B10300749887304F0F3
:103E2000030020B10448807B001D034988730020F3
:103E30003EBD000009E3CA02EC0100203EB5044685
:103E40006CB10EA1D1E900208968CDE90020029172
:103E50006A4609214FF4976002F032FF3EBD0AA284
:103E6000D2E900109268CDE9010200916A46092169
:103E70004FF4976002F024FFF0E70000B8AAB38D7A
:103E8000B4980D355D000000B8AAAAAAB088C3C5D1
:103E9000C700000038B5044664B1C0208DF80000AA
:103EA000C2208DF80100C4208DF80200C6208DF8D4
:103EB000030004E08B2204216846FCF786F96A4679
:103EC000042140F6982002F0FBFE02F0E5FA38BD2E
:103ED00010B5C8234FF48062024940F6F63002F074
:103EE0006FF910BD947A00082DE9F04F8DB00746A8
:103EF000884615469946DDE9166B0024002030807F
:103F00006B49887B5A4605A902F026FA18B1601E53
:103F10000DB0BDE8F08F6648807A00F014000028EC
:103F200067D09DF8140000069DF8151040EA014086
:103F30009DF8161040EA01209DF8171008432860EC
:103F40009DF8180000069DF8191040EA01409DF800
:103F50001A1040EA01209DF81B10084368609DF884
:103F60001C0000069DF81D1040EA01409DF81E103F
:103F700040EA01209DF81F100843A8609DF820002A
:103F800000069DF8211040EA01409DF8221040EA09
:103F900001209DF823100843E86004F11000C4B22A
:103FA000286800140190686800140290A868001442
:103FB0000390E8680014049001984043029901FBC3
:103FC0000100039901FB0100049901FB010ABAF108
:103FD000706F02DBBAF1885F05DD02F05DFA002048
:103FE0003080401E94E7B6F9000040F480703080C5
:103FF00000BF2F48807A00F0400020B305A9601C64
:10400000085C095D40EA012000B2A8F8000005A99B
:10401000E01C095C05AAA01C105C41EA002000B26B
:10402000A8F8020005A9601D095C201D105C41EA8A
:10403000002000B2A8F80400A01DC4B2B6F9000028
:1040400040F0080030801A48408900F4C07008B37E
:1040500005A9601C085C095D40EA012000B23880B7
:1040600005A9E01C095C05AAA01C105C41EA00201F
:1040700000B2788005A9601D095C201D105C41EA32
:10408000002000B2B880A01DC4B2B6F9000040F014
:10409000700030800648807A00F0030018B105A94E
:1040A0000819FFF7FFFC484601F0D0FB00202FE77E
:1040B000EC01002070B588B0064601A801F0D4FEDE
:1040C000BDF804000021C90341EA5045C403444837
:1040D000007A00F0030056F8200005904048007A6E
:1040E00000F0040010B10598404205903C48007A69
:1040F000C0F3C10056F8200006903948007A00F05D
:10410000200010B10698404206903548007AC0F36E
:10411000811056F8200007903148008900F4807023
:1041200010B10798404207900598C117A0FB0423DF
:1041300001FB043100FB0510810041EA92700590FB
:104140000698C117A0FB042301FB043100FB0510F6
:10415000810041EA927006900798C117A0FB0423E2
:1041600001FB043100FB0510810041EA92700790C9
:104170000598000E8DF808000598000C8DF80900D0
:104180000598000A8DF80A000598C0B28DF80B005A
:104190000698000E8DF80C000698000C8DF80D00A6
:1041A0000698000A8DF80E000698C0B28DF80F0030
:1041B0000798000E8DF810000798000C8DF811007C
:1041C0000798000A8DF812000798C0B28DF8130006
:1041D00002AA0C214FF4257002F072FD08B070BDE8
:1041E000EC01002030B585B0044616A207CA02AB28
:1041F00007C3C82C03DD4FF0FF3005B030BDC82029
:1042000090FBF4F0401E85B2280A8DF80000E8B259
:104210008DF801006A46022140F2162002F050FD9E
:1042200010B14FF0FF30E8E702AA0C2140F6C120A0
:1042300002F046FD10B14FF0FF30DEE70448848104
:104240000020DAE7FEF2ABC4AAF1DFDFBBAFDFDFAD
:10425000EC0100201FB504464848007A00F0030036
:1042600054F8200001904548007A00F0040010B195
:104270000198404201904148007AC0F3C10054F8CF
:10428000200002903D48007A00F0200010B1029812
:10429000404202903948007AC0F3811054F820005F
:1042A00003903648008900F4807010B103984042B2
:1042B00003903349019880FB0101800F40EA81009F
:1042C00001902F49029880FB0110820042EA917010
:1042D00002902B49039880FB0110820042EA917002
:1042E00003900198000E8DF800000198000C8DF8E5
:1042F00001000198000A8DF802000198C0B28DF803
:1043000003006A4604214FF4747002F0D9FC18B11E
:104310004FF0FF3004B010BD0298000E8DF8000081
:104320000298000C8DF801000298000A8DF8020036
:104330000298C0B28DF803006A4604214FF47570EC
:1043400002F0BEFC10B14FF0FF30E3E70398000E1F
:104350008DF800000398000C8DF801000398000A06
:104360008DF802000398C0B28DF803006A4604215C
:104370004FF4767002F0A4FCCCE70000EC010020C2
:1043800009E3CA0210B586B0044647A0006803904E
:1043900046A00068029046A00068019045A0006811
:1043A000009004F0030003A9085C8DF8140003A832
:1043B000C4F3C101405C8DF8150003A8C4F381115A
:1043C000405C8DF8160004F0030002A9085C8DF82B
:1043D000100002A8C4F3C101405C8DF8110002A8CE
:1043E000C4F38111405C8DF8120005AA032140F24C
:1043F000264002F065FC18B14FF0FF3006B010BD4A
:1044000004AA032140F22A4002F05AFC10B14FF0F6
:10441000FF30F3E7019805900098049004F0040041
:1044200058B19DF8140040F001008DF814009DF87B
:10443000100040F001008DF8100004F0200058B189
:104440009DF8150040F001008DF815009DF8110051
:1044500040F001008DF8110004F4807058B19DF80F
:10446000160040F001008DF816009DF8120040F093
:1044700001008DF8120005AA03214FF4886002F0B4
:104480001FFC10B14FF0FF30B8E704AA032140F23F
:10449000314002F015FC10B14FF0FF30AEE7064896
:1044A00004810020AAE700004CCD6C000CC92C0050
:1044B0003656760026466600EC010020F8B5054623
:1044C0000E464FF47A7095FBF0F000FB06F4200ED8
:1044D0008DF80000200C8DF80100200A8DF80200F4
:1044E000E0B28DF803006A4604214FF4AE7002F08A
:1044F000E7FBF8BD38B50446052094FBF0F084B224
:1045000020128DF80000E0B28DF801006A46022109
:104510004FF4AD7002F0D4FB38BD38B50446052029
:1045200094FBF0F084B220128DF80000E0B28DF818
:1045300001006A4602214FF4AC7002F0C1FB38BDA5
:1045400038B504460020009004F0010020B19DF829
:10455000000040F03000009004F0020020B19DF80F
:10456000000040F00C00009004F0040020B19DF821
:10457000000040F0030000906A4601214FF4A4704F
:1045800002F09EFB38BD38B50446012C01DA012447
:1045900002E0042C00DD0424601EC0B200906A46D4
:1045A000012140F24F1002F08BFB38BD2DE9FC4792
:1045B00006460F4606F0070010B1B7F5C86F03DDD9
:1045C0004FF0FF30BDE8FC873846FCF776F88146AF
:1045D0005949FBF7A3FE8046684601F01FFC9DF891
:1045E0000000022806D0042816D0082826D010285B
:1045F00048D135E04FF08D414046FBF75DFE8146E6
:10460000FCF78AF884B24D494046FBF755FE8146D7
:10461000FCF782F885B238E04FF08C414046FBF75A
:104620004BFE8146FCF778F884B245494046FBF7DB
:1046300043FE8146FCF770F885B226E04FF08B41CF
:104640004046FBF739FE8146FCF766F884B23D49E7
:104650004046FBF731FE8146FCF75EF885B214E078
:104660004FF08A414046FBF727FE8146FCF754F89D
:1046700084B235494046FBF71FFE8146FCF74CF8F3
:1046800085B202E04FF0FF309CE700BF20128DF8AA
:104690000400E0B28DF8050028128DF80600E8B29B
:1046A0008DF8070006F00100A0B101AA02214FF425
:1046B000EA7002F005FB10B14FF0FF3082E70DF118
:1046C000060202214FF4927002F0FAFA10B14FF094
:1046D000FF3077E706F00200A0B101AA02214FF4F3
:1046E000EC7002F0EDFA10B14FF0FF306AE70DF117
:1046F000060202214FF4947002F0E2FA10B14FF07A
:10470000FF305FE706F00400A0B101AA02214FF4D8
:10471000EE7002F0D5FA10B14FF0FF3052E70DF114
:10472000060202214FF4967002F0CAFA10B14FF05F
:10473000FF3047E7002045E70000484300004046BF
:104740000000C045000040450000C04438B50446A4
:10475000052094FBF0F085B228128DF80000E8B235
:104760008DF801006A4602214FF4EF7002F0A8FABA
:1047700038BD38B50446052094FBF0F085B2281208
:104780008DF80000E8B28DF801006A4602214FF46E
:10479000ED7002F095FA38BD10B5FFF76FF908E03B
:1047A00001214FF4E17000F05DFD0A48007800B986
:1047B00000E0F5E700BF09E001214FF4E17000F0EF
:1047C00051FD04480078012800D100E0F4E700BF63
:1047D00010BD00009000002010B5FDF797FC0EE022
:1047E00001214FF4E17000F03DFD0D48007830B933
:1047F0000C490D480068FCF70DF800D200E0EFE727
:1048000000BF09E001214FF4E17000F02BFD0448E6
:104810000078012800D100E0F4E700BF10BD0000DF
:104820009000002000004040040000202DE9F047E7
:104830000646894614464FF0000A2546FDF766FCF9
:104840002CE04946304600F00DFD1648006805286A
:104850000EDC15480068FBF773FF07464FF0333254
:10486000124BFBF799FF03D24FF0010AFDF744FC0E
:10487000BAF1010F0ED14FF480510D48FCF7FAFB4D
:1048800028B14FF400510A48FCF7F4FB10B94FF07F
:10489000000A6D1E15B9FDF72FFC00E0D1E700BF3F
:1048A000BDE8F08780000020040000203333D33FB0
:1048B000001401402DE9FF5F824616461C464FF06A
:1048C000000B0025B1463BE05046019900F0CAFCC0
:1048D00035B91D480068A04216DC4FF0010B13E00B
:1048E000002D11DD18480068A0420DDC1748006853
:1048F000FBF726FF0746164A164BFBF74DFF03D87A
:104900004FF0010BFDF7F8FBBBF1010F12D14FF493
:1049100080511148FCF7AEFB28B14FF400510E480E
:10492000FCF7A8FB30B94FF0000BA9F101096D1C91
:10493000FDF7ECFBB9F1000F02D1FDF7DDFB00E064
:10494000C2E700BFBDE8FF9F8000002004000020F8
:104950000AD7A3703D0AC73F001401402DE9FF5F4D
:10496000824616461C464FF0000B0025B14635E046
:104970005046019900F076FC35B91A480068A0420B
:1049800016DC4FF0010B13E0002D11DD1548006817
:10499000A0420DDC14480068FBF7D2FE0746002257
:1049A000124BFBF7F9FE03D24FF0010BFDF7A4FB0E
:1049B000BBF1010F0CD14FF480510D48FCF75AFBAD
:1049C00030B94FF0000BA9F101096D1CFDF79EFBFA
:1049D000B9F1000F02D1FDF78FFB00E0C8E700BF7F
:1049E000BDE8FF9F80000020040000200000E03FA1
:1049F000001401402DE9FF5F824616461C464FF029
:104A0000000B0025B14635E05046019900F02AFC24
:104A100035B91A480068A04216DC4FF0010B13E0CC
:104A2000002D11DD15480068A0420DDC1448006817
:104A3000FBF786FE07460022124BFBF7ADFE03D2C2
:104A40004FF0010BFDF758FBBBF1010F0CD14FF4F8
:104A500000510D48FCF70EFB30B94FF0000BA9F1E7
:104A600001096D1CFDF752FBB9F1000F02D1FDF7F2
:104A700043FB00E0C8E700BFBDE8FF9F80000020C7
:104A8000040000200000E03F0014014000BF054A80
:104A9000128802F04002002AF9D0C2B2014B1B1D5D
:104AA0001A807047003801407CB50546284949689E
:104AB000087801AB04220D21FCF77AFF08B107202A
:104AC0007CBD9DF80700C0F301109DF8041001F0B3
:104AD000E00140EAE1008DF800009DF80700C0F316
:104AE00081009DF8051001F0E00140EAE1008DF839
:104AF00001009DF8070000F003009DF8061001F08A
:104B0000E00140EAE1008DF8020000241CE01DF8FD
:104B1000040018B9002045F8240013E00D4845F8BA
:104B2000240006E055F824000B49FBF7C5FB45F8C7
:104B300024001DF80400401EC0B20DF80400002837
:104B4000F0D100BF601CC4B2032CE0DB0020B7E74B
:104B5000940000207B14AE3E1D5A843F2DE9F04F97
:104B600087B005460C46914601208DF810000020C4
:104B70008DF81100FE4A1268917CFD4A5268107847
:104B800004AB0222FCF7BAFF20B14FF0FF3007B0B0
:104B9000BDE8F08FC820FEF7D9FF00208DF8100087
:104BA000F34A1268D17BF24A5268107804AB0122B2
:104BB000FCF7A4FF10B14FF0FF30E8E7EC4A1268B1
:104BC0005179EB4A5268107804AB0122FCF796FF4A
:104BD00010B14FF0FF30DAE7E54A1268917CE44A01
:104BE0005268107804AB0122FCF788FF10B14FF037
:104BF000FF30CCE7DE4A1268D17DDD4A526810787A
:104C000004AB0122FCF77AFF10B14FF0FF30BEE792
:104C1000D74A12681179D64A5268107804AB01223B
:104C2000FCF76CFF10B14FF0FF30B0E70C208DF8AF
:104C30001000CF4A12681179CD4A5268107804AB3F
:104C40000122FCF75BFF10B14FF0FF309FE70F2010
:104C5000FEF77CFFC648806A407A8DF81000C44A8F
:104C600012689178C24A5268107804AB0122FCF7AE
:104C700045FF10B14FF0FF3089E7BD48806A007AE8
:104C80008DF81000BA4A12685178B94A5268107803
:104C900004AB0122FCF732FF10B14FF0FF3076E792
:104CA000B9F1000F07D0B248806A807A40F0E00086
:104CB0008DF8100004E0AE48806A807A8DF810000C
:104CC000AB4A12689179AA4A5268107804AB012263
:104CD000FCF714FF10B14FF0FF3058E7B9F1000FA7
:104CE00007D0A348806AC07A40F0E0008DF8100039
:104CF00003E0A048C07A8DF810009D4A1268D1796F
:104D00009B4A5268107804AB0122FCF7F7FE10B101
:104D10004FF0FF303BE7B9F1000F02D0C820FEF79B
:104D200015FF40208DF81000914A12681179904AC1
:104D30005268107804AB0122FCF7E0FE10B14FF08E
:104D4000FF3024E778208DF81000894A12685179E5
:104D5000874A5268107804AB0122FCF7CFFE10B1ED
:104D60004FF0FF3013E783498889FEF7EFFE0020FC
:104D70008DF810007E4A126851797D4A5268107889
:104D800004AB0122FCF7BAFE10B14FF0FF30FEE693
:104D9000774A1268917A764A5268107804AB0222F8
:104DA000FCF706FE10B14FF0FF30F0E69DF8110061
:104DB0009DF8101040EA012B0C209BFBF0F0C6B2CE
:104DC0000020A86068602860A06060602060824663
:104DD00065E0674A1268D17A654A5268107804AB78
:104DE0000C22FCF7E5FD10B14FF0FF30CFE69DF847
:104DF00011009DF8101040EA012000B2ADF8080043
:104E00009DF813009DF8121040EA012000B2ADF8A1
:104E10000A009DF815009DF8141040EA012000B228
:104E2000ADF80C00BDF90810206808442060BDF9F9
:104E30000A10606808446060BDF90C10A06808445E
:104E4000A0609DF817009DF8161040EA012000B2FE
:104E5000ADF800009DF819009DF8181040EA0120F7
:104E600000B2ADF802009DF81B009DF81A1040EA50
:104E7000012000B2ADF80400BDF900102868084414
:104E80002860BDF90210686808446860BDF9041024
:104E9000A8680844A8600AF1010000F0FF0AB245C2
:104EA00097DB3448D0F800C02868C117090441EAEC
:104EB00010410704624600233846FBF755F9324695
:104EC0000023CDE90201FBF74FF928602948D0F80B
:104ED00000C06868C117090441EA1041070462462E
:104EE00000233846FBF740F932460023CDE90201A2
:104EF000FBF73AF968601F48D0F800C0A868C117EE
:104F0000090441EA10410704624600233846FBF7D2
:104F10002BF932460023CDE90201FBF725F9A86001
:104F20001448D0F804C02168C817000440EA1148AA
:104F30000F046246002338464146FBF715F9324616
:104F40000023CDE90201FBF70FF920600948D0F8F2
:104F500004C06068C117090441EA104107046246B1
:104F600000233846FBF700F93246002304E0000036
:104F7000940000206C7A0008CDE90201FBF7F4F8F8
:104F800060601148D0F804C0A068C117090441EA64
:104F900010410704624600233846FBF7E5F8324625
:104FA0000023CDE90201FBF7DFF8A060A06800282C
:104FB00004DDA068A0F58030A06003E0A06800F5E3
:104FC0008030A0600020E2E56C7A000870B50446ED
:104FD0000D4661480574FCF7B3FE5F48007C01286C
:104FE0002BD104215D48FCF745F801280AD108219E
:104FF0005A48FCF73FF8012804D1601F214600F011
:1050000027FCA7E004215548FCF734F838B9614281
:10501000204600F01DFC0520FEF798FD9AE00821CF
:105020004E48FCF727F80028EBD12146604200F0FB
:105030000FFC0520FEF78AFD8CE04748007C022823
:105040002BD104214548FCF715F801280AD1082185
:105050004248FCF70FF8012804D1601F214600F0F8
:10506000F7FB77E004213D48FCF704F838B96142CA
:10507000204600F0EDFB0520FEF768FD6AE0082100
:105080003648FBF7F7FF002864D12146604200F064
:10509000DFFB0520FEF75AFD5CE02F48007C03286B
:1050A0002AD104212D48FBF7E5FF01280AD1082168
:1050B0002A48FBF7DFFF012804D12146204600F0F3
:1050C000C7FB47E004212548FBF7D4FF38B961420C
:1050D000204600F0BDFB0520FEF738FD3AE0082130
:1050E0001E48FBF7C7FF40BB2146604200F0B0FB03
:1050F0000520FEF72BFD2DE01748007C042829D160
:1051000004211648FBF7B6FF01280AD108211348ED
:10511000FBF7B0FF012804D12146204600F098FBA0
:1051200018E004210D48FBF7A5FF38B9614220467D
:1051300000F08EFB0520FEF709FD0BE00821074873
:10514000FBF798FF30B92146604200F081FB052053
:10515000FEF7FCFC70BD0000D000002000140140F0
:1051600070B5FCF7EDFDFCF7D1FF04E001214FF431
:10517000E170FFF72BFF1F480068FBF7E1FA0446D8
:105180004FF033321C4BFBF7EFFAEFD3FCF7BEFFC7
:1051900000201849086011E0022140F28A20FFF740
:1051A00015FF14480068FBF7CBFA0446134A144B6A
:1051B000FBF7F2FA02D8FCF79FFF00E0ECE700BF34
:1051C000FCF7A4FF0AE003214FF4FA70FFF7FEFE9C
:1051D0000C48007810B9FCF78FFF00E0F3E700BF40
:1051E0004FF07C52012140F2262000F00DF802F031
:1051F000A1F870BD040000203333F33F9A999999C8
:105200009999E93F9000002070B505460E46144676
:10521000FCF77CFF03E03146284600F023F82146E6
:1052200003480068FBF7ECFAF5D9FCF765FF70BDA1
:105230000400002010B50EE0012140F28A2000F0A9
:1052400011F80648007830B9054A012140F22620BD
:10525000FFF7DAFF00E0EFE700BF10BD900000208D
:105260009A99993F2DE9F04781460C464FF0000A84
:10527000564804710079012804D0022825D003285B
:1052800035D111E04846FBF71DFA07464FF033329F
:105290004F4BFBF728F90546FBF796FA4D49486155
:1052A00000208861C86123E04846FBF70BFA0746F7
:1052B0000022494BFBF717F90546FBF785FA4549EC
:1052C000486100208861C86112E04846FBF7FAF99E
:1052D00007464FF033323E4BFBF705F90546FBF727
:1052E00073FA3C49486100208861C86100E000BF52
:1052F00000BF3648007900283BD0FBF7CBFE37498A
:10530000086008460068334948600A46516890685A
:10531000FAF77AFF2F49886088683149FBF77AFAF3
:1053200002D82F482B4988602A4A11695068FAF739
:10533000BDFF2849C8600846406808610A46D16830
:10534000D069FAF7B9FF0646224A91689069FAF7E0
:10535000B3FF07461F4A51685069FAF7ADFF804610
:105360003946FAF751FF05463146FAF74DFF8246B6
:105370000BE01648007940B900201849086015492B
:10538000486008618860C86082464846FBF78CF92F
:1053900005465146FAF78AFF124908604846FBF76E
:1053A00083F905465146FAF72FFF0F490860084672
:1053B0000068FBF798F905460A480068FBF793F97F
:1053C0000646294600F044FABDE8F087D0000020E8
:1053D0003333D33FAC0100200000E03F8C000020BD
:1053E0000000FA44840000208800002070B50546C3
:1053F0000E461446FCF78AFE03E03146284600F0CC
:1054000027FA214603480068FBF7FAF9F5D3FCF7C1
:1054100073FE70BD040000202DE9FC5F06460F46B8
:1054200000253D494968087801AB03220D21FCF7AE
:10543000BFFA10B10720BDE8FC9F9DF8040000F002
:105440001F008DF804009DF8050000F01F008DF886
:1054500005009DF8060000F01F008DF806000024EE
:1054600056E056F8240057F82410A0EB010BBBF1CE
:10547000000F01DB594601E0CBF100010846FBF7C4
:1054800013F94FF08F410090FAF748FF814601A8C9
:10549000005D68B321490868FBF70FF98346594658
:1054A0001F48FAF73BFF804604E01E494046FAF7E2
:1054B00003FF804601A8005D401EC0B201A9085547
:1054C0000028F2D141464846FAF728FF83464FF0BC
:1054D0007E51FAF7EBFE82462AF0004B0F488169B5
:1054E0005846FBF797F912D20120A04005430EE081
:1054F0000A4801694846FBF783F905D30748416923
:105500004846FBF787F902D20120A0400543641CFE
:10551000032CA6DB28468EE7940000206C7A000856
:1055200000B04C4554E3853F10B50446204600F0DA
:105530000FF80346E01C00F00BF843EAC00083B20A
:10554000A01D00F005F843EA801083B2184610BD94
:10555000014691F90020002A01DD00201EE091F9AA
:105560000020002A01DA042018E091F90120002A25
:1055700001DD012012E091F90120002A01DA052065
:105580000CE091F90220002A01DD022006E091F9E9
:105590000220002A01DA062000E00720704710B53B
:1055A00001F0B2FCFFF7DCFDFEF7A0F910BD000032
:1055B00010B502F05DF800F07FF9044802F040F900
:1055C000FEF7E2F801F0B6FE10BD0000CDCC4C3E77
:1055D00010B5FFF7E1F8234A012140F2B630FFF79A
:1055E00013FE03230122114640F2EE20FFF702FAD8
:1055F0001D494FF4FA7002F01BF8FFF71BFE03235E
:10560000012211464FF42F70FFF754F94FF07C52EE
:10561000012140F2B630FFF7F7FD0122114640F2BA
:10562000B630FFF703F9FEF71FFA104802F008F949
:105630000D494FF4FA7001F0FBFF0423022201210F
:1056400040F2B630FFF736F9084802F0F9F806499B
:105650004FF4FA7000F076F8FEF7B0F901F038FD7B
:1056600010BD00009A99993FCDCC4C3ECDCCCC3D9D
:1056700010B5FFF791F803230122114640F2523092
:10568000FFF76CF9FEF7D8F801F0B6FC10BD00008A
:1056900010B501F073FB01F0EDFB0848C07801285C
:1056A0000BD101F0FDFF01F08BFB0448807801284D
:1056B00003D101F045FB01F067FC10BD2000002084
:1056C00010B501F05BFBFFF7B5FD04230122114685
:1056D0004FF42570FFF7EEF8154802F0B1F81549C0
:1056E0004FF4FA7000F02EF8FEF7BEF901221146D1
:1056F00040F2B630FFF79AF8FEF7B6F90D494FF4CD
:10570000FA7001F095FF04230222012140F2B63025
:10571000FFF7D0F8064802F093F806494FF4FA7004
:1057200000F010F8FEF74AF901F0D2FC10BD0000BD
:10573000CDCCCC3DCDCC4C3E10B501F0CFFB01F033
:10574000C7FB10BD70B504460D462A46214660428F
:1057500002F0FCF870BD0000FEF7D6F94FF480604F
:10576000FCF738FA4FF4E13002F01CF94FF4E13065
:10577000FDF70AF8FBF70AFFFBF7FAFEFBF7D6FE88
:10578000FBF78FFAFBF73CFFFCF7C5FB052140F266
:10579000AF40FCF70FFD00BFFCF7B0F80028FBD1CD
:1057A00000BF00F0EBFA0028FBD1FBF7D3FE472146
:1057B00040F2E730FCF772FC41F61F4140F2F31073
:1057C000FCF742FD3FE0FFF7EAFE1F48C0780128E2
:1057D0000ED11D48807801280AD1FFF7E9FEFFF7B6
:1057E00047FFFFF7F5FEFFF7A7FF01F009FE2AE0EC
:1057F0001548C07801280BD11348807840B9FFF7CD
:10580000D7FEFFF75DFFFFF797FF01F051FE1AE0AB
:105810000D48C078B8B9FFF7CBFEFFF739FFFFF7A7
:105820008BFF0948C07810B901F0AEFE0BE00648C6
:10583000C078012805D10448807810B901F038FEFD
:1058400001E001F0DDFDBEE7200000207047000010
:1058500030B504460D464FF47A7229462046FBF7D0
:10586000B7FE002C05DB13490C800020091D0880C1
:105870000AE000200F490880201E01DB014600E0FD
:1058800041420C4A121D1180002D06DB00200949FF
:1058900008390880091D0D800AE0281E01DB014639
:1058A00000E04142034A083A11800020111D08809F
:1058B00030BD00003C0400402DE9F04100BF394AF2
:1058C00039493A4800F048F90028F8D1384A01210E
:1058D00040F2B630FFF798FC00BF324A32493348F5
:1058E00000F03AF90028F8D100BF2E4A2E492F487F
:1058F00000F032F90028F8D12B480068FAF7F3FEDF
:10590000041E01DB214600E061420846FAF7CCFEA6
:1059100007462AE0012140F22620FFF7A3FC00BF42
:10592000204A2149214800F017F90028F8D11E48E3
:105930000068FAF7D8FE051E01DB294600E069423F
:105940000846FAF7B1FE80463946FAF7AFFC06463C
:10595000FAF7C9FE041E01DB204600E060420A2877
:1059600002DA1448007800B900E0D3E700BFFCF782
:10597000CDFB12E001214FF4E170FFF773FC0E48FC
:105980000068FAF7DDFE04464FF033320B4BFAF7AE
:1059900003FF02D8FCF7B0FB00E0EBE700BFBDE877
:1059A000F08100002C0000202800002024000020AE
:1059B000CDCC4C3E90000020040000203333FB3F50
:1059C0002DE9F04100BF3F4A3F49404800F0C4F88C
:1059D0000028F8D13E4A012140F2B630FFF714FC0E
:1059E0003C4A01214FF41670FFF70EFC00BF354A08
:1059F0003549364800F0B0F80028F8D100BF314AE8
:105A00003149324800F0A8F80028F8D12E48006843
:105A1000FAF769FE041E01DB214600E061420846F8
:105A2000FAF742FE07462AE0012140F22620FFF75E
:105A300019FC00BF234A2449244800F08DF80028AF
:105A4000F8D121480068FAF74EFE051E01DB294611
:105A500000E069420846FAF727FE80463946FAF721
:105A600025FC0646FAF73FFE041E01DB204600E057
:105A700060420A2802DA1848007800B900E0D3E74B
:105A800000BFFCF743FB11E001214FF4E170FFF789
:105A9000E9FB12480068FAF753FE0446104A114B1E
:105AA000FAF77AFE02D8FCF727FB00E0ECE700BF2C
:105AB0004FF07C5201214FF4E170FFF7A5FBBDE8E8
:105AC000F08100002C00002028000020240000208D
:105AD000CDCCCC3D9A99193E9000002004000020C6
